:020000040800F2
:1000000058050020A1010008FB2200081B20000861
:10001000F9220008310A0008E12800080000000069
:10002000000000000000000000000000FF220008A7
:10003000330A000800000000FD2200080123000828
:10004000BB010008BB010008BB010008BB010008A0
:10005000BB010008BB010008BB010008BB01000890
:10006000BB010008BB010008BB010008BB01000880
:10007000BB010008BB010008BB010008BB01000870
:10008000BB010008BB010008BB010008BB01000860
:10009000BB010008BB010008BB010008BB01000850
:1000A000BB010008BB010008BB010008BB01000840
:1000B000BB010008BB010008BB010008BB01000830
:1000C000BB010008BB010008BB010008BB01000820
:1000D000BB010008BB010008BB010008BB01000810
:1000E000BB010008BB010008BB010008BB01000800
:1000F000BB010008BB010008BB010008BB010008F0
:10010000BB010008BB010008D9230008BB0100089F
:10011000BB010008BB010008E5230008BB01000883
:10012000BB010008BB010008BB010008BB010008BF
:10013000BB010008BB010008BB010008BB010008AF
:10014000BB010008BB010008BB010008BB0100089F
:10015000BB010008BB010008BB010008BB0100088F
:10016000BB010008BB010008BB010008BB0100087F
:10017000BB010008BB010008BB0100080000000033
:10018000BB010008BB010008DFF810D000F05EFAE8
:1001900000480047E9310008AFF30080580500200F
:1001A0000648804706480047FEE7FEE7FEE7FEE711
:1001B000FEE7FEE7FEE7FEE7FEE7FEE7C9230008ED
:1001C000890100082DE9F05F0546002092469B4614
:1001D00088460646814640241BE02846414647465D
:1001E000224600F06AF853465A46C01A914110D38D
:1001F00011461846224600F051F82D1A67EB010807
:100200004F4622460120002100F048F817EB000974
:100210004E41201EA4F10104DFDC484631462A4647
:100220004346BDE8F09FD2B201E000F8012B491E21
:10023000FBD270470022F6E710B513460A46044683
:100240001946FFF7F0FF204610BD00F0004230F0E5
:1002500000400AD0C10D01F56071C0F3160042EAFA
:100260000151C20840071143704700200146704702
:1002700030B50B46014600202022012409E021FA76
:1002800002F59D4205D303FA02F5491B04FA02F573
:100290002844151EA2F10102F1DC30BD202A04DB46
:1002A000203A00FA02F1002070479140C2F1200389
:1002B00020FA03F3194390407047202A04DB203AC8
:1002C00021FA02F00021704721FA02F3D040C2F176
:1002D000200291400843194670472DE9FE4F8046A1
:1002E00081EA0300C00F0C46009021F0004123F08A
:1002F0000045B8EB0200A94105D240462146904690
:100300001C460B46024623F00040104347D0270D01
:10031000C7F30A00C3F30A510290401A0190402823
:100320006BDAC3F3130040F4801B0098924620B1AF
:100330000023D2EB030A63EB0B0B01985946C0F183
:1003400040025046FFF7AAFF06460D465046594662
:10035000019A00F08DF910EB08006141002487EA52
:10036000115284EAE7731A4340D0009A62B3019AAB
:10037000012A4FEA075215DC001B61EB02014FF026
:10038000004202EA0752CDE90042001C41F580110B
:1003900032462B4600F08DF903B0BDE8F08F4046A1
:1003A0002146F9E7001B61EB0201001C41F58013B7
:1003B00000185B412018A2F5001747EB030140EA43
:1003C000D570B6196D4111E06D084FEA360645EA61
:1003D000C0754FEA0752001B61EB0201001C41F59A
:1003E000801149084FEA30000019514132462B462E
:1003F00003B0BDE8F04F00F04DB900980122400075
:100400000023D0EB020263EBE073009821464FEA31
:10041000E074B8EB000061EB0401E9E783F000430E
:100420005BE781F0004158E72DE9FE4F81EA0304C4
:1004300004F0004421F0004100944FF0000B23F041
:10044000004350EA01045ED052EA03045BD0C3F3D8
:100450000A54C1F30A552C44A4F2F3340194A0FBCE
:100460000254C1F3130141F48011C3F3130343F4A5
:10047000801301FB024400FB034E840A970A44EAFE
:10048000815447EA8357A4FB076802958D0A05FB50
:1004900007854FEA932C04FB0C542705029D4FEA75
:1004A000065847EA1637B5EB08056EEB070C870EC2
:1004B000920E47EA811742EA8312A7FB0201B6EBCC
:1004C0000B0164EB00042B0D43EA0C335E1844EB84
:1004D0001C50DA465146E7FB0201C5F313044FEA0C
:1004E0000B3343EA14534FEA0432019C43EA0603F8
:1004F000A4F10C040294009CCDE900B400F0D9F8FA
:1005000003B0BDE8F08F00200146F9E72DE9F04D7A
:1005100081EA030404F0004B21F0004514464FF03B
:10052000000A23F0004150EA050220D054EA0102FB
:100530001DD0C5F30A570246C5F31303C1F31300D8
:10054000C1F30A5640F4801543F48013A7EB060864
:10055000101BD64608F2FD3873EB050002D308F1F4
:10056000010801E092185B41B8F1000F03DA0020A6
:100570000146BDE8F08D00204FF480110646844608
:100580000EE0171B73EB050705D3121B63EB050386
:1005900006434CEA010C49084FEA300092185B41CF
:1005A00050EA0107EDD152EA030012D082EA0400BA
:1005B00083EA0501084305D0101BAB4106D2012296
:1005C000002306E000224FF0004302E06FF001023A
:1005D00053101AEB06004CEB085110EB0A0041EBEC
:1005E0000B01BDE8F04D00F055B8C1F30A52C1F35C
:1005F000130140F2FF3341F480119A4202DA0020E5
:100600000146704740F233439A42A2F2334202DC81
:100610005242FFF752BEFFF741BE000030B5041E44
:1006200071F1000404DB4FF00044404264EB01012F
:10063000141E73F1000405DB1C464FF000435242C8
:1006400063EB0403994208BF904230BD064C074D4E
:1006500006E0E06840F0010394E807009847103492
:10066000AC42F6D3FFF794FD6C3400088C340008DC
:10067000202A06DBCB17203A41FA02F043EAE07366
:1006800006E041FA02F3D040C2F120029140084353
:100690001946704710B5141E73F1000408DA401CA7
:1006A00041F1000192185B411A4301D120F0010091
:1006B00010BD2DE9F04D92469B4611B1B1FA81F281
:1006C00002E0B0FA80F220329046FFF7E7FD0446E0
:1006D0000F4640EA0A0041EA0B0153465A460843D6
:1006E00013D0114653EA010019D0C8F14002504618
:1006F000FFF7E3FD05460E46504659464246FFF7D2
:10070000CDFD084305D0012004E020463946BDE870
:10071000F08D0020054346EAE0762C4337430A98E3
:100720006305E40AA0EB08000022FD0A44EA4754EE
:100730000A3002D500200146E9E701051019694198
:10074000DDE9084500196941BDE8F04DA2E7000068
:1007500070B5664D2DED028B697809B980F0070000
:10076000634C9FED648A41F26906072879D2DFE87D
:1007700000F0B99156791C043E0008215C4801F054
:100780004DFB08215A4801F02DF895ED010A21682A
:1007900020EE080ABCEEC00A10EE100A886304219D
:1007A000534801F0D7FA042116E00421504801F023
:1007B00035FB04214E4801F015F895ED010A21683A
:1007C00020EE080ABCEEC00A10EE100AC863082129
:1007D000474801F0BFFA0821454801F003F82068B6
:1007E00046630021424801F019FB002173E000211B
:1007F0003F4801F013FB00213D4800F0F3FF95ED69
:10080000010A216820EE080ABCEEC00A10EE100AA8
:10081000C8630821364801F09DFA082116E0082136
:10082000334801F0FBFA0821314800F0DBFF95ED79
:10083000010A216820EE080ABCEEC00A10EE100A78
:10084000486300212A4801F085FA0021284800F079
:10085000C9FF206886630421254801F0DFFA0421DE
:1008600039E03FE00421224801F0D8FA0421204871
:1008700000F0B8FF95ED010A216820EE080ABCEEF1
:10088000C00A10EE100A48630021194801F062FA0C
:10089000002116E00021164801F0C0FA002114489A
:1008A00000F0A0FF95ED010A216820EE080ABCEED9
:1008B000C00A10EE100A886304210D4801F04AFABC
:1008C00004210B4800F08EFF2068C6630821084809
:1008D00001F0A4FA0821BDEC028B0548BDE8704088
:1008E00000F020BFBDEC028B70BD000000000020B6
:1008F000CC0000200040834510EE100AB0F17E5F6E
:1009000002DDB7EE000A06E0B5EEC00AF1EE10FA1D
:1009100001D29FED030A034880ED010A70470000F1
:10092000000000000000002010B501225102104814
:1009300000F0A9F900F024F8092000F095F80D491D
:100940006FF00200096808610A4800F027FE00F015
:1009500073F8FFF7FDFE2021074801F03FF8064934
:100960006FF020000968086104490020087010BD7C
:10097000001C02403C000020CC00002000000020B1
:1009800010B5174800F064FE164C0020216848633B
:10099000216888632168C8630146204601F0DAF9BE
:1009A0000421204601F0D6F90821204601F0D2F9B1
:1009B0000021204600F0B6FE0421204600F0B2FEE1
:1009C0000821204600F0AEFE2021204601F006F866
:1009D00021686FF02000086103490120087010BDF4
:1009E0003C000020CC0000200000002010B50021B9
:1009F0000E4801F013FA04210C4801F00FFA082107
:100A00000A4801F00BFA0021084800F0EBFE04212F
:100A1000064800F0E7FE0821044800F0E3FEBDE8C8
:100A200010402021014800F0D9BF0000CC00002078
:100A3000FEE7704772B6FEE770B50A4C4FF480616E
:100A4000204600F01BF94500E114204600F016F99D
:100A500028434500A114204600F010F9284300F077
:100A6000070070BD001C024070B5044600F010F98C
:100A70000546601C02D004480078044400F008F9E0
:100A8000401BA042FAD370BD280000202DE9F84F8A
:100A9000DFF8BCA10022012503264FF00F090AF15F
:100AA000040BAAF1040E00BF0B6805FA02F4234000
:100AB000A34270D10F7907F00307012F01D0022F55
:100AC00016D187684FEA420806FA08FC27EA0C07A5
:100AD000D1F80CC00CFA08FC4CEA070CC0F808C0AE
:100AE0004768A7430C79C4F3001494403C43446026
:100AF0000C79E443A4070AD0C4684FEA420C06FA12
:100B00000CF7BC438F6807FA0CF72743C7600C79D2
:100B100004F00304022C12D1D40800EB840CDCF89E
:100B200020405707FF0E09FA07F824EA0804D1F815
:100B3000108008FA07F848EA0408CCF82080046816
:100B40004FEA420C06FA0CF7BC430F7907F0030793
:100B500007FA0CF7274307604C6814F4403F70D045
:100B60003C4C276847F480472760246822F003073D
:100B700004F480440094384C07EB040CDCF808487B
:100B800097074FEA177809FA08F7BC43334FB84282
:100B900002D1002724E054E0314FB84201D10127AF
:100BA0001EE0304FB84201D1022719E02E4FB84263
:100BB00001D1032714E02D4FB84201D104270FE0E3
:100BC0002B4FB84201D105270AE02A4FB84201D184
:100BD000062705E0284FB84201D1072700E0082783
:100BE00007FA08F72743CCF80878DAF800405746A8
:100BF000D1F804C09C435FEACC2C00D51C433C6078
:100C0000DBF800405F46D1F804C09C435FEA8C2CBF
:100C100000D51C433C60DEF800407746D1F804C0A4
:100C20009C435FEA8C3C00D51C433C60084F083F66
:100C30003C68D1F804C09C435FEACC3C00D51C431F
:100C40003C60521C102AFFF42FAFBDE8F88F000063
:100C5000083C01404438024000300140000002409E
:100C60000004024000080240000C02400010024054
:100C70000014024000180240001C024000690840B5
:100C800000D0012070470AB1816170470904FBE779
:100C900001488068704700002800002002488168F1
:100CA0000278114481607047280000200B4810B57D
:100CB000016841F400710160016841F480610160E4
:100CC000016841F480710160032000F06FF80F208B
:100CD00000F006F800F024F8002010BD003C0240AF
:100CE00070B50D4D04464FF47A712878B1FBF0F0E1
:100CF0000A490968B1FBF0F000F030FB48B9102C4C
:100D000007D200222146501E00F030F800206C600F
:100D100070BD012070BD00002800002034000020BC
:100D20000A4808B5016841F480410160006800F498
:100D3000804000900548001F016841F0805101602B
:100D4000006800F08050009008BD00004438024068
:100D5000002809DB00F01F020121914040098000BA
:100D600000F1E020C0F8001170470000F0B40E4B15
:100D70001B680C46C3F30223C3F10705042D00D9F9
:100D80000425191D072901D2002300E0DB1E0126DE
:100D900006FA05F1491E214099409E40761E1640F4
:100DA0003143F0BC01F0AEBD0CED00E0064900F0AF
:100DB000070208684FF6FF03184040EA0220034A82
:100DC00010430860704700000CED00E00000FA05D9
:100DD0002DE9F0470E46050065D0DFF81481D8F8FC
:100DE0000000F7B200F00700B04207D288F80070A8
:100DF000D8F8000000F00700B04254D128683D4CFC
:100E0000810712D5400703D5206840F4E0502060E8
:100E10002878000703D5206840F4604020602068EF
:100E2000A96820F0F000084320602878C0072DD082
:100E3000304968680839012812D0022813D00328E5
:100E400011D00968890700292DDA216821F00301F2
:100E500001432160FFF71CFF814641F2883A0EE012
:100E600009688903EFE709688901ECE7FFF710FFDC
:100E7000A0EB0901514502D90320BDE8F0872068A5
:100E8000696800F00C00B0EB810FEFD1D8F80010CA
:100E9000404601F00701B14207D90770006800F031
:100EA0000700B04201D00120E7E72878400705D5C8
:100EB0002068E96820F4E0500843206028780007A3
:100EC00006D52068296920F4604040EAC10020600E
:100ED00000F044F82168084AC1F30311515CC8408E
:100EE0000649086006480068FFF7FAFE0020C4E7DC
:100EF000003C02400838024053340008340000200F
:100F00002C00002001490120C864704700004742BE
:100F1000014800687047000034000020044805497B
:100F200000680968044AC1F38221515CC8407047D7
:100F300034000020083802406334000804480549A2
:100F400000680968044AC1F34231515CC8407047E7
:100F5000340000200838024063340008154810B5FA
:100F6000006810F00C02144813D01449042A0FD062
:100F7000082A0ED10F4C241F2268236802F03F027A
:100F80005B0207D52068C0F38810A0FB010106E0D2
:100F9000084610BD2168C1F38811A1FB00010023A0
:100FA000FFF710F92168C1F30141491C4900B0FB6A
:100FB000F1F010BD083802400024F40040787D01B3
:100FC0002DE9F84F04006ED02078DFF84C93C0076D
:100FD000A9F104054AD009F104000168C1F38101B7
:100FE000012908D00068C0F3810002280AD1D9F88D
:100FF0000000400206D52868800337D560680028C5
:10100000E1D033E06068B0F5803F10D0B0F5A02F9C
:10101000286810D020F480302860286820F48020D0
:1010200028606068A8B1FFF733FE06460DE0286827
:1010300040F48030F4E740F480202860F7E700BFF8
:10104000FFF726FE801B642873D828688003F7D535
:101050000CE0FFF71DFE064605E000BFFFF718FE97
:10106000801B6428F0D828688003F7D42078DFF844
:10107000AC8280074FF0000A3ED5A748001D0168EA
:1010800011F00C0F08D00068C0F3810002280BD1CA
:10109000D9F80000400207D42868800716D5E06818
:1010A000012800D112E033E1E068B8B10120C8F8AE
:1010B0000000FFF7EDFD064605E000BFFFF7E8FD85
:1010C000801B0228C0D828688007F7D528682169C6
:1010D00020F0F80040EAC10028600DE0C8F800A048
:1010E000FFF7D6FD064604E0FFF7D2FD801B02287D
:1010F0001FD828688007F7D42078000722D5864FAC
:1011000087486169703771B101210160FFF7C0FD47
:10111000064604E0FFF7BCFD801B022809D83868AA
:101120008007F7D50EE0C0F800A0FFF7B1FD064636
:1011300005E082E0FFF7ACFD801B02287DD838680F
:101140008007F7D42078400768D5DFF8CCB10027B6
:101150000BF13C0BDBF80000C0000BD4DBF80010F7
:1011600041F08051CBF80010DBF80000012700F0BF
:10117000805000906B4E3068C00510D4306840F449
:1011800080703060FFF784FD009005E0FFF780FD80
:101190000099401A022850D83068C005F6D55E4E36
:1011A000A0686C3601280FD00528306810D020F0D8
:1011B00001003060306820F004003060A068B8B1F1
:1011C000FFF766FD00900FE0306840F00100F4E7A3
:1011D00040F004003060F7E7FFF75AFD0099411A2C
:1011E00041F28830814266D830688007F4D50EE03D
:1011F000FFF74EFD009007E0FFF74AFD0099411A06
:1012000041F28830814256D830688007F4D42FB13B
:10121000DBF8001021F08051CBF80010A069C8B3B2
:101220003D49091D0968C1F3810102294AD00228FC
:10123000504607D0C8F8600000E03CE0FFF728FD0A
:1012400004463BE04746C8F86000FFF721FD06462C
:1012500005E000BFFFF71CFD801B02282BD8286883
:101260008001F7D4D4E907010843A16A2E4A49084E
:1012700002EB0141626A41EA8211084394F82C10A2
:1012800040EA0161C9F8001001203866FFF700FD4F
:10129000044606E03EE000BFFFF7FAFC001B022810
:1012A00009D828688001F7D534E000BFFFF7F0FCCB
:1012B000001B022802D90320BDE8F88F28688001AE
:1012C000F4D427E00128F7D0D9F80000E26900F44F
:1012D000800191421CD1226A00F03F01914217D156
:1012E00047F6C071626A0140B1EB821F10D1A26A59
:1012F0004FF0FF3300F4403103EB5202B1EB024FE9
:1013000006D194F82C1000F07060B0EB016F01D0A2
:101310000120D1E70020CFE7043802400000474217
:10132000800E4742007000400000FFFF4FF0E021B8
:101330000428086903D020F004000861704740F0D9
:101340000400FAE70449886810B1401E886001D1A2
:1013500001200870704700001800002010B5401EE2
:10136000B0F1807F01D3012010BD4FF0E024606117
:101370000F21601701F0C6FA0020A061072020614C
:10138000002010BD10B5FFF7DDFF10BD704770479E
:1013900010B590F83C20012A22D0012280F83C2090
:1013A000CA688C6822F4407222434C6822F480623E
:1013B00022430C6822F4006222430C6922F480521A
:1013C00022434C6922F400522243C969002322F4CB
:1013D00080420A4301684A6480F83C30002010BD16
:1013E000022010BD10B590F83C30012B0AD001232B
:1013F00080F83C3041B1102906D0202904D0302992
:1014000002D00AE0022010BD03689C6824F070043A
:101410009C6003689C680C439C6001684B6843F0C7
:1014200001034B6001684B6823F004034B600168C3
:101430004B6813434B600168CA6822F02002CA60FF
:101440000168CA6822F40052CA60002180F83C108A
:10145000084610BD70B588B00E46040004D094F85C
:101460003D00002518B107E0012008B070BD84F8E8
:101470003C50204600F056F8022084F83D00211D23
:10148000206800F0B5FFB36831680322206801F0DE
:1014900013F92068816921F00C018161206881695C
:1014A0007268114381612068416841F080014160A8
:1014B0002068816821F0700181602068816841F0B6
:1014C000400181602068816821F007018160206807
:1014D000816841F0040181607020059504950695AE
:1014E000039502950090F06801906946206801F02C
:1014F0003FF82068416821F0700141602068416830
:1015000041F050014160012084F8460084F83E001B
:1015100084F83F0084F8420084F8430084F83D00DA
:101520000020A2E710B586B0044614216846FEF7F5
:1015300081FE17492068884227D116480021026899
:1015400042F008020260006800F0080005901148AF
:101550001038026842F080020260006800F08000EB
:1015600005904FF4E05000900220CDE90101CDE953
:10157000031069460848FFF789FA01221146322014
:10158000FFF7F4FB3220FFF7E3FB06B010BD0000CD
:10159000000C004040380240001C024010B590F89A
:1015A0003E30044690F83F2090F8421090F84300F7
:1015B000012B05D1012A03D1012901D1012801D034
:1015C000012010BD022084F83E0084F83F0084F81A
:1015D000420084F843002068C16841F00201C16004
:1015E00001220021206800F067FF1249206888422C
:1015F00014D0B0F1804F11D00F4988420ED00F495E
:1016000088420BD00E49884208D00E49884205D046
:101610000D49884202D00D49884204D1816801F009
:101620000701062903D0016841F001010160002093
:1016300010BD000000000140000400400008004010
:10164000000C004000040140004001400018004030
:1016500010B5044600220068114600F02DFF2068F6
:10166000C16821F00201C1602068016A41F21112D3
:10167000114207D1016A9210114203D1016821F091
:1016800001010160012004F83E0F6070207160715B
:10169000002010BD70B590F83C20012A32D0012402
:1016A00080F83C40022280F83D2003685A689D681B
:1016B00022F070060A6832435A60134B02689A425D
:1016C00014D0B2F1804F11D0104B9A420ED0104B73
:1016D0009A420BD00F4B9A4208D00F4B9A4205D03A
:1016E0000E4B9A4202D00E4B9A4204D1496825F023
:1016F00080031943916080F83D40002180F83C1040
:10170000084670BD022070BD00000140000400408A
:1017100000080040000C004000040140004001406F
:101720000018004010B50446022249B104290ED029
:10173000082913D094F84500012816D0012010BDC7
:1017400094F842000128F9D184F842200FE094F87F
:1017500043000128F2D184F8432008E094F84400C3
:101760000128EBD184F8442001E084F845200422CC
:10177000206800F0AEFE2068416C41F400414164F5
:1017800011492068884214D0B0F1804F11D00F4920
:1017900088420ED00E4988420BD00E49884208D0AC
:1017A0000D49884205D00D49884202D00C49884233
:1017B00004D1816801F00701062903D0016841F0D6
:1017C00001010160002010BD000001400004004044
:1017D00000080040000C00400004014000400140AF
:1017E0000018004070B504460D460068002200F065
:1017F00070FE2068036A41F211110B4240F244422C
:1018000006D1036A134203D1436C23F400434364BB
:101810002068036A0B4206D1016A114203D10168B4
:1018200021F00101016001203DB1042D08D0082DF7
:1018300009D084F84500002070BD84F84200FAE722
:1018400084F84300F7E784F84400F4E710B5040097
:1018500003D094F83D0010B107E0012010BD002036
:1018600084F83C00204600F01FF8022084F83D0078
:10187000211D206800F0BCFD012084F8460084F89A
:101880003E0084F83F0084F8400084F8410084F86A
:10189000420084F8430084F8440084F8450084F84A
:1018A0003D00002010BD000008B5006811498842C5
:1018B00012D11148016841F0100101600068002256
:1018C00000F01000009011463620FFF74FFABDE8F7
:1018D00008403620FFF73CBA0849884209D106483B
:1018E000001D016841F002010160006800F0020083
:1018F000009008BD00100040403802400004014044
:1019000070B5044690F83C000025012817D0012648
:1019100084F83C60022084F83D002068826822F050
:10192000770222F47F4282600868502838D00DDCAC
:1019300020284FD005DC90B3102811D14AE00220B6
:1019400070BD302846D040280AD13BE060282FD017
:1019500070280DD0B0F5805F03D0B0F5005F12D0D5
:10196000012584F83D60002084F83C00284670BDC5
:10197000CB68D1E90121206800F0B8FD20688168BA
:1019800041F0770109E0CB68D1E90121206800F03E
:10199000ADFD2068816841F480418160E1E719E094
:1019A000CA684968206800F075FE5021206806E08A
:1019B000CA684968206800F0BFFE6021206800F016
:1019C0009FFDCEE7CA684968206800F063FE4021A9
:1019D0002068F4E7226801461046F0E790F83C20C2
:1019E000012A0CD0012200F83C2F0223437050F84A
:1019F0003C3C59614270002101700846704702204A
:101A00007047000070B50546FFF716F80446FEF76C
:101A10009FFE2868406B09498A6810448860C8683E
:101A2000401CC86006484A68005D904201D1012010
:101A300000E0002008704C6070BD0000080000202D
:101A40004C34000870B50446006801694FF0000589
:101A5000C943890715D4C168C943890711D4E91E50
:101A6000016101202077206880698007204602D02C
:101A7000FFF7C8FF04E000F0D7F8204600F069F94E
:101A8000257720680169C943490717D4C168C9434C
:101A9000490713D46FF00401016102202077206808
:101AA000806910F4407F204602D0FFF7ABFF04E0CE
:101AB00000F0BAF8204600F04CF92577206801695B
:101AC000C943090716D4C168C943090712D46FF086
:101AD00008010161042020772068C0698007204642
:101AE00002D0FFF78FFF04E000F09EF8204600F0E0
:101AF00030F9257720680169C943C90617D4C16840
:101B0000C943C90613D46FF0100101610820207782
:101B10002068C06910F4407F204602D0FFF772FFB2
:101B200004E000F081F8204600F013F925772068E2
:101B30000169C943C90708D1C168C943C90704D1AC
:101B4000891E0161204600F0A7F920680169C94398
:101B5000090609D4C168C943090605D46FF080019C
:101B600001612046FFF712FC20680169C94349065C
:101B700009D4C168C943490605D46FF04001016129
:101B8000204600F08AF920680169C94389060BD410
:101B9000C168C943890607D46FF02001016120465E
:101BA000BDE87040FFF7F3BB70BD000070B586B0B4
:101BB000044614216846FEF73DFB17492068884219
:101BC00028D116480024016841F0800101600168B5
:101BD00001F080010591016841F4807101600068A5
:101BE000022500F4807005904FF460400090CDE92C
:101BF00001540326CDE9034669460948FEF746FF2E
:101C0000E0200090CDE90154CDE90346694605483E
:101C1000FEF73CFF06B070BD0004014030380240C2
:101C2000001C024000200240704770B5044690F846
:101C30003C0000260D4601280FD0012084F83C000E
:101C40006AB1042A1DD0082A2FD00C2A3FD00126C1
:101C5000002084F83C00304670BD022070BD206832
:101C600000F056FC2068816941F00801816120681C
:101C7000816921F004018161206881692A69114329
:101C800011E0206800F074FC2068816941F4006173
:101C900081612068816921F48061816120688169A6
:101CA0002A6941EA02218161D2E7206800F096FCAE
:101CB0002068C16941F00801C1612068C16921F053
:101CC0000401C1612068C1692A69114311E02068DB
:101CD00000F0B8FC2068C16941F40061C16120686E
:101CE000C16921F48061C1612068C1692A6941EA42
:101CF0000221C161ACE710B5040003D094F83D00A7
:101D000010B107E0012010BD002084F83C002046FF
:101D100000F01EF8022084F83D00211D206800F02C
:101D200067FB012084F8460084F83E0084F83F00F9
:101D300084F8400084F8410084F8420084F84300AD
:101D400084F8440084F8450084F83D00002010BD6C
:101D50007047704710B50446022249B104290ED0DD
:101D6000082913D094F84100012816D0012010BD95
:101D700094F83E000128F9D184F83E200FE094F851
:101D80003F000128F2D184F83F2008E094F8400099
:101D90000128EBD184F8402001E084F841200122A1
:101DA000206800F089FB16492068164A884201D055
:101DB000904203D1436C43F400434364206888425B
:101DC00013D0B0F1804F10D00F4988420DD00F4989
:101DD00088420AD00E49884207D0904205D00D496A
:101DE000884202D00C49884204D1816801F0070181
:101DF000062903D0016841F001010160002010BDF7
:101E000000000140000401400004004000080040C0
:101E1000000C0040004001400018004030B504466E
:101E20000D460068002200F047FB194B41F21111EA
:101E300020688A10984202D0164B984209D1036A52
:101E40000B4206D1036A134203D1436C23F40043CF
:101E500043642068036A0B4206D1016A114203D130
:101E6000016821F00101016001203DB1042D08D07D
:101E7000082D09D084F84100002030BD84F83E00D0
:101E8000FAE784F83F00F7E784F84000F4E7000041
:101E900000000140000401407047704770B5040025
:101EA00004D094F83D00002510B106E0012070BD7B
:101EB00084F83C50204600F023F8242084F83D00AC
:101EC0002068C16821F40051C160204600F046FC42
:101ED0002068016921F4904101612068416921F085
:101EE0002A0141612068C16841F40051C160256444
:101EF000202084F83D0084F83E00002070BD0000E2
:101F000010B586B0044614216846FEF793F91349CC
:101F10002068884220D112480021026842F0100255
:101F20000260006800F0100005900D481438026847
:101F300042F002020260006800F002000590C0203A
:101F400000900220CDE901010320039007200490B6
:101F500069460448FEF79AFD06B010BD0010014026
:101F600044380240000402402DE9F843044690F84A
:101F70003D001F4616460D4620284CD1C5B1BEB1C6
:101F800094F83C00012846D0012084F83C004FF032
:101F90000008C4F84080212084F83D00FEF778FE58
:101FA000A6848146E684A068B0F5805F03D004E093
:101FB0000120BDE8F883206928B12E465FF00005B6
:101FC00084F83C800EE00026FAE78021204600F0ED
:101FD0004BFCA0B9AEB116F8010B21684860E08C4B
:101FE000401EE084E08C4B464FF000020097002832
:101FF000EBD14FF04001204600F036FC30B1032019
:10200000D7E735F8020BC0F30800E6E7202084F894
:102010003D000020CDE70220CBE7FEE770B50C467F
:102020000546FEF72BFE012801D0002070BD214699
:102030002846FEF723FE0128F9D0012070BD0000DC
:1020400070B586B014216846FEF7F4F831480024D4
:10205000016841F010010160016801F01001059173
:10206000016841F004010160016801F0040105917B
:10207000016841F080010160016801F08001059173
:10208000016841F001010160016801F00101059161
:10209000016841F040010160016801F040010591D3
:1020A000016841F002010160016801F0020105913F
:1020B000016841F4807101600068174E00F480707F
:1020C0000590002240213046FEF7DDFD40200090C3
:1020D0000125CDE90154694630460394FEF7D6FC4C
:1020E0006803CDE9000469460C480294FEF7CEFC73
:1020F000CDE9005469460A480294FEF7C7FC1C204B
:10210000CDE90004694607480294FEF7BFFC06B01B
:1021100070BD00003038024000100240000802404C
:10212000000002400018024010B586B00024154897
:102130000094019404941249059401605321C0E96C
:1021400001144FF6FF71C1602021846101610F20ED
:1021500002900620039069460A48FFF77BF908B110
:10216000FEF768FC5020CDE9040404A90548FFF7F8
:1021700091FA002801D0FEF75DFC06B010BD00000A
:10218000000C00403C0000201CB500240E480094C8
:102190000C490194C0E900144FF6FF71C0E90241F7
:1021A0008461FFF753FB08B1FEF744FC00946946D5
:1021B00005480194FFF76EFA002801D0FEF73AFCBB
:1021C0001CBD0000001000408400002010B596B037
:1021D00000240F9410941194129413941C216846B7
:1021E0001494FEF727F8202107A8FEF723F83348B8
:1021F0003149C0E900142021816041F26801C0E941
:10220000031444618461FFF721FB08B1FEF712FC5F
:102210004FF480500F900FA92848FFF771FB08B1C9
:10222000FEF708FC2548FFF766FD08B1FEF702FC43
:10223000139413A921481494FFF72CFA08B1FEF760
:10224000F9FB6020CDE90004029403940494059402
:102250000022694619480694FFF7E7FC08B1FEF72B
:10226000E9FB042269461548FFF7DFFC08B1FEF7D9
:10227000E1FB082269461148FFF7D7FC08B1FEF7D9
:10228000D9FB0794089409944FF400500A94CDE9BF
:102290000B4007A909480E94FFF77AF808B1FEF73A
:1022A000C9FB042230210548FFF79CF80348FFF7DB
:1022B0007DFC16B010BD000000040140CC000020E1
:1022C0000C4810B50A4901604FF4E131416000212A
:1022D00081600C22C160C0E904128161C161FFF715
:1022E000DDFD002803D0BDE81040FEF7A3BB10BD04
:1022F0000010014014010020FEE7FEE77047704720
:1023000010B5FEF7CBFCBDE81040FFF73BB800006E
:1023100030B593B030216846FDF78CFF14210CA82E
:10232000FDF788FF26480025016841F080510160D3
:10233000006800F0805011902248016841F480410B
:1023400001600068022400F4804011900120039095
:1023500010200490009406940820CDE90750A8208E
:10236000CDE9090404200B906846FEF729FE08B168
:1023700072B6FEE70CA90F2081E831004FF4A0509F
:102380000F904FF48050109005210CA8FEF720FD0F
:1023900008B172B6FEE7FEF7B5FDFEF7B9FD4FF4E2
:1023A0007A71B0FBF1F0FEF7D9FF0420FEF7BEFF13
:1023B00000221146501EFEF7D9FC13B030BD0000BC
:1023C00040380240007000400248016841F470014A
:1023D0000160704788ED00E00148FFF733BB000063
:1023E0003C0000200148FFF72DBB000084000020C6
:1023F000F0B50268254C264D264E274F274B4FF04F
:10240000804CA04209D0604507D0A84205D0B04218
:1024100003D0B84201D0984204D122F0700E4A682D
:1024200042EA0E02A0421BD0604519D0A84217D044
:10243000B04215D0B84213D0984211D0184DA842DE
:102440000ED0184DA8420BD0174DA84208D0174DFA
:10245000A84205D0164DA84202D0164DA84203D17D
:1024600022F44075CA682A434D6922F080022A434B
:1024700002608A68C2620A688262A04201D0984201
:1024800001D10969016301214161F0BD00000140F2
:102490000004004000080040000C0040000401401F
:1024A0000040014000440140004801400018004045
:1024B000001C00400020004010B501F01F03012166
:1024C000046A99408C430462016A9A401143016294
:1024D00010BD10B501F01F030421046A99408C431C
:1024E0000462016A9A401143016210BD10B584680C
:1024F00042EA032224F47F440A432243826010BD4F
:10250000826822F070020A4342F00701816070473E
:10251000F0B5026A22F001020262036A426884692D
:10252000124E24F073050C682C4323F002058B68CF
:102530002B430D4DA84201D0B04205D123F008072E
:10254000CB683B4323F00403A84201D0B04205D13D
:102550004D6922F4407215438A692A4342608461BE
:10256000496841630362F0BD00000140000401407E
:10257000F0B5026A22F010020262026A43688469BE
:102580000D6824F4E64444EA05248D6822F0200214
:1025900042EA05120F4D104EA84201D0B04206D1BA
:1025A000CF6822F0800242EA071222F04002A842DD
:1025B00001D0B04207D14D6923F4406343EA85035B
:1025C0008D6943EA850343608461496881630262DF
:1025D000F0BD00000000014000040140F0B5026AB7
:1025E00022F480720262026A4368C46922F40072B3
:1025F00024F073050C68124E2C438D6842EA0522C4
:102600000E4DA84201D0B04206D1CF6822F400623C
:1026100042EA072222F48062A84201D0B04207D1E8
:102620004D6923F4405343EA05138D6943EA0513CA
:102630004360C4614968C1630262F0BD00000140AB
:102640000004014030B5026A22F480520262046A3A
:102650004268C3690D6823F4E64343EA05238D68A5
:1026600024F4005444EA0534084DA84202D0084D31
:10267000A84204D14D6922F4804242EA85124260A8
:10268000C36149680164046230BD0000000001407C
:102690000004014010B5036A046A24F001040462D6
:1026A000846924F0F00444EA021423F00A020A4385
:1026B0008461026210BD000070B5046A24F0010458
:1026C00004628469056A154EB04214D0B0F1804F9F
:1026D00011D0134EB0420ED0124EB0420BD0124E5B
:1026E000B04208D0114EB04205D0114EB04202D0D7
:1026F000104EB04203D124F00304144301E044F02F
:1027000001041A0724F0F00444EA126225F00A03D7
:1027100001F00A0119438261016270BD00000140AD
:102720000004004000080040000C0040000401408C
:10273000004001400018004010B5036A23F0100368
:1027400003628369046A23F4704343EA023224F08B
:10275000A00343EA01118261016210BD70B5044615
:1027600000680169E26821F4405111430161216967
:10277000A068E26908436169114308432168CA6897
:1027800049F20C639A430243CA6020684169A26916
:1027900021F440711143416131492068884202D0DF
:1027A0003049884202D1FEF7C9FB01E0FEF7B6FBD3
:1027B000E2690023192164253226B2F5004F6268D0
:1027C00028D0A0FB0101930F9200FDF7FBFC01460E
:1027D000B0FBF5F06FF01802504301EB800006EB00
:1027E0000010B0FBF5F000F0F002B1FBF5F002EBE9
:1027F0000012B1FBF5F06FF01803584301EB8000B5
:1028000006EB0010B0FBF5F000F00F00216810445B
:10281000886070BDA0FB010192185B41FDF7D2FCFE
:102820000146B0FBF5F00201B1FBF5F06FF01803C3
:10283000584301EB800006EBC000B0FBF5F000F060
:10284000F80002EB4002B1FBF5F0584301EB8000C9
:1028500006EBC000B0FBF5F000F00700D6E7000083
:1028600000100140001401402DE9F0419846174640
:102870000E460446069D27E0681C25D02DB1FEF7C4
:1028800007FAA0EB0800A8421ED920680C3050E8D7
:10289000001F21F4D07140E80012002AF5D1206811
:1028A000143050E8001F21F0010140E80012002A16
:1028B000F5D1202084F83D0084F83E00002084F803
:1028C0003C000320BDE8F0812068006836EA000083
:1028D00004D00020B842CFD00020F3E70120F9E770
:1028E000FEE700000FB4054B10B503A9044A029897
:1028F00000F0EAF810BC5DF814FB0000D1310008CC
:10290000380000200907090E002804DB00F1E02050
:1029100080F80014704700F00F0000F1E02080F80C
:10292000141D704702E008C8121F08C1002AFAD11E
:1029300070477047002001E001C1121F002AFBD13F
:10294000704700002DE9FF5F82B00021DDE904300F
:10295000020DDDF840B0034318D044F61050A2F247
:10296000FF3242431514119801281FD0A5EB0B002C
:10297000401C5FEA000A4FF000064E4FDFF8389126
:10298000B046504615D5CAF1000413E01198012451
:102990004AA3012801D16FEA0B010298119AC0E9FC
:1029A0000031C0E9024206B0BDE8F09FCBF1000063
:1029B000DFE704460021404A491842EB0450CDE9C4
:1029C000001012E0E00707D032463B464046494639
:1029D000FDF72AFD8046894632463B461046194699
:1029E000FDF722FD06460F466410002CEAD1DDE912
:1029F0000401DDE90023BAF1000F06DAFDF714FD4A
:102A000042464B46FDF710FD05E0FDF77FFD4246CF
:102A10004B46FDF77BFD04460E460022284BFDF792
:102A2000FDFD03D84FF0FF30014607E00022254BA3
:102A300020463146FDF751FCFDF7D7FD102409E093
:102A4000002C0ADB0A220023FDF7BCFB039B30327B
:102A50001A55641E50EA0102F2D1641C039AC4F1B3
:102A600011031444119A012A03D0012208430DD105
:102A70000AE0084304D000204FF0110B119072E7D8
:102A8000A3EB0B056D1E0DE05B4504DD4FF000026E
:102A900005F1010504E003DA4FF00002A5F101059C
:102AA000002AECD002981199C0E90231C0E9004532
:102AB00079E70000000014400000F03F3000000003
:102AC0000000F0430000E03F2DE9FF4F95B09A462B
:102AD000884606460025EEE1252877D100242746C2
:102AE000F94A0121039400E0044316F8013F203B1A
:102AF00001FA03F01042F7D130782A2811D06FF094
:102B00002F033078A0F13002092A16D8039A44F036
:102B1000020402EB820203EB42021044761C039093
:102B2000EFE758F8042B0392002A03DA504244F4EA
:102B30000054039044F00204761C30782E2816D1FD
:102B400016F8010F44F004042A280DD06FF02F026C
:102B50003078A0F13003092B09D807EB870302EB8B
:102B60004303C718761CF3E758F8047B761C3078CB
:102B70006C280FD006DC4C2817D068280DD06A28A6
:102B800014D104E0742810D07A280FD10DE044F459
:102B900000140AE044F4801401E044F44014727814
:102BA000824202D104F58014761C761C30786628A7
:102BB0000BD013DC582877D009DC002875D04528C5
:102BC000F6D04628F4D047281AD193E118E06328BC
:102BD00035D0642879D0652812D18BE1702873D064
:102BE00008DC6728F1D069286FD06E280DD06F28D7
:102BF00006D1ACE073282CD0752874D0782853D037
:102C00005246179990476D1C54E1C4F302500228B4
:102C100009D003280DD0D8F8001004280DD00D607D
:102C200008F1040846E1D8F80010EA17C1E900529B
:102C3000F6E7D8F800100D80F2E70D70F0E718F80D
:102C4000041B8DF8001000208DF80100EB460120D8
:102C500003E058F804BB4FF0FF3061074FF000016C
:102C600002D40DE009F101018946B9420FDA81452C
:102C7000F8DB1BF809100029F4D108E009F1010183
:102C800089468142FADB1BF809100029F6D1039826
:102C90005346A0EB090721463846179A00F080FA00
:102CA000284400EB090507E044E008E10DE01BF8CB
:102CB000010B524617999047B9F10109F7D25346D3
:102CC00021463846179AF2E039E00A21C4F302524D
:102CD0004FF0000B0091022A06D058F8040BC117E0
:102CE000032A09D00AE023E008F1070020F00702D8
:102CF000F2E80201904605E000B2C117042A01D1B2
:102D000040B2C117002906DA0A460021404261EBB1
:102D100002012D2202E0220504D52B228DF8042089
:102D2000012203E0E20701D02022F7E7914657E0B5
:102D30000A2100E010214FF0000B00910BE0102160
:102D40004FF0000B44F004040827009103E0082032
:102D50004FF0000B0090C4F30252022A05D058F83D
:102D6000040B0021032A08D008E008F1070020F036
:102D70000702F2E80201904603E080B2042A00D183
:102D8000C0B24FF0000922072AD53278702A07D046
:102D9000DDF800C08CF0100C5CEA0B0C05D00EE0E6
:102DA00040228DF80420012208E050EA010306D0F9
:102DB00030238DF804308DF8052002229146009BC7
:102DC00083F0080353EA0B030AD150EA010201D150
:102DD000620705D530228DF804204FF001097F1ECF
:102DE0003278582A04D039A20C920CAA02920BE035
:102DF0003BA2F9E75B46009AFDF7E4F90C9B9B5C6C
:102E0000029A521E0292137050EA0102F2D1029805
:102E100004A9081A00F1200B600702D524F48034BD
:102E200000E001275F4502DDA7EB0B0000E000207A
:102E300000EB0B01009003984944401A0390E00313
:102E400006D453462146179A039800F0A9F9054481
:102E5000002706E001A85246C05D179990476D1CF7
:102E60007F1C4F45F6DBE0030CD553462146179AED
:102E7000039800F095F9054404E030205246179974
:102E800090476D1C0099481E00900029F5DC08E071
:102E90000298029952460078491C0291179990476E
:102EA0006D1CBBF10001ABF1010BF1DC5BE100F04B
:102EB00065F90544761C307800287FF40DAE19B012
:102EC0002846BDE8F08F0000092801003031323378
:102ED0003435363738396162636465660000000056
:102EE0003031323334353637383941424344454640
:102EF00000000000600700D4062708F1070020F05A
:102F00000700F0E80223804603F0004C5FEA0C0063
:102F100001D097A009E0200501D596A005E0E007C3
:102F200001D095A001E0AFF24C001390307823F06F
:102F3000004365280CD006DC452809D046281DD062
:102F400047287FD13BE0662818D067287AD136E041
:102F50000021112F01DB112000E0781CCDE90001D8
:102F600004A90CA8FFF7EEFCDDE90D010C9A4FF067
:102F7000000B07F10109109200914EE04FF0004064
:102F80000097CDE9011004A90CA8FFF7DBFCDDE9EF
:102F90000D020C9B0F994FF0000B9146109300927D
:102FA00011B9791C00EB0109B7EB090003D4C0F19A
:102FB000FF3B07F10109A9EB0700019042E0012F57
:102FC00000DA01270021112F01DD112000E0384631
:102FD000CDE9000104A90CA8FFF7B4FCDDE90D015F
:102FE0000C9A00914FF0000BB946109221070FD4B4
:102FF000009A4A4503DA914601E0A9F10109B9F1C5
:10300000010F05DD109AA9F10101515C3029F4D0BE
:10301000B84202DA10F1040F03DA0121CDE9011000
:1030200010E0002803DC8344A9EB000102E0411C0E
:10303000494500DD8946A0EB0B00401C01904FF094
:1030400000400290200705D40198484502DB4FF06C
:10305000FF30019000208DF84B0002980DF14B07D6
:10306000B0F1004F25D002200C902B200D9002983B
:1030700000280CDA404202902D200D9007E00A2132
:103080000298FDF7F5F83031029007F8011D0C9910
:10309000481E0C900029F2DC02980028EFD1791E1E
:1030A0000D980870307800F0200040F0450007F8D7
:1030B000020D11A8C01BC01D02901398007800B12A
:1030C000012000EB0901019801EBE0710298014435
:1030D0000398401A401E0390E00306D4534621464D
:1030E000179A039800F05CF805441398007818B11B
:1030F0005246179990476D1CE00323D5534621464D
:10310000179A039800F04CF805441BE0BBF1000F40
:1031100007DB0098584504DD1098179910F80B004C
:1031200001E0179930205246904701980BF1010BAE
:10313000401E05F10105019004D12E205246179939
:1031400090476D1CB9F10001A9F10109DEDC05E031
:1031500017F8010B5246179990476D1C0299481EAB
:1031600002900029F4DC53462146179A03989EE604
:103170002D0000002B000000200000002DE9F04190
:10318000044600251E461746880404D405E0394647
:103190002020B0476D1C641EF9D52846BDE8F0819B
:1031A0002DE9F041044600251E469046C80301D58E
:1031B000302700E02027880404D505E04146384642
:1031C000B0476D1C641EF9D52846BDE8F0810000AB
:1031D00013B54FF47A73012269460248FEF7C4FE24
:1031E00000981CBD140100202DED048B84B0FDF768
:1031F0005DFDFFF78DF8FEF723FFFEF795FFFEF765
:10320000E5FFFEF7C1FFFFF75BF861494FF00009EA
:1032100081F800909FED5F9ADFF87CB1DFF87CA128
:10322000DFF87C8101215F48FEF7F8FE01280AD112
:103230009FED5D0A88ED010AFDF75EFBFDF774FB6B
:103240005AA0FFF74FFB5E4C04212046FEF7E6FE36
:1032500001280AD198ED010A30EE090A88ED010A29
:10326000FDF74AFB57A0FFF73DFB4FF400515848CC
:10327000FEF7D4FE01280AD198ED010A30EE490A82
:1032800088ED010AFDF738FB52A0FFF72BFB082160
:103290002046FEF7C3FE01280DD1514800780128D1
:1032A00001D050A005E03A48017859B180F800906B
:1032B00053A0FFF717FB10212046FEF7AFFE0128B1
:1032C00003D00CE001210170F2E7FDF759FB642007
:1032D000FDF7CAFBFDF78AFB4EA0FFF703FB98F84A
:1032E0000010404600299DD0DBF800205946EAB383
:1032F000DAF800200B68B2FBF3F200EE102AB8EE09
:10330000400ADFED470A80EE801A80ED031A00BF05
:10331000CAF80090C1F80090424990ED030A09787C
:10332000B0EEC00A09B1B1EE400A80ED030AF0EE3A
:10333000408AB3EE080A88EE808A9FED3B0A28EEA9
:10334000000A10EE100AFCF780FF06460F4618EE42
:10335000100AFCF77AFF04460D4618EE900AFCF7B7
:1033600074FF41EC100B53EC102B00E00BE08DE8E8
:10337000F0002EA0FFF7B6FA88F800904FF44871DD
:10338000C8F808104EE79FED300A80ED030ABFE74A
:1033900001000020CDCC4C3D140000201000002086
:1033A00018000020000002409A99193EB0B4BCFCFD
:1033B0004B455931C6F4B6AFB5E7BBFA0A00000079
:1033C00000180240B5E7BBFABCD3CBD90A00000015
:1033D00000080240B5E7BBFABCF5CBD90A000000F3
:1033E00000000020B5E7BBFAB8FCBBBBB7BDCFF20D
:1033F0002CB1D8D0EBCFC8CDA3D6B90A00000000BD
:10340000D0E8D2AAD6D8D0C2C6F4B6AFB5E7BBFAD8
:103410000A000000C9B2B3B5CDA3D6B90A000000B6
:10342000002474490800002000007042252E3366F5
:1034300020487A2C20252E3266205250532C2025ED
:103440002E326652504D0A000000000000030602B2
:103450000501040000000000000000010203040652
:103460000708090000000001020304008C34000872
:10347000000000203C00000024290008C834000897
:103480003C0000201C050000342900080101000058
:103490000000803E0000000000000000000000006E
:1034A000000000000000000000000000000000001C
:1034B00000000000010000001000000000000000FB
:0834C0000024F40000000000EC
:040000050800018965
:00000001FF
